:020000040800F2
:10000000002800206D1F0008851C00088B1C0008BC
:10001000911C0008971C00089D1C000800000000AF
:10002000000000000000000000000000A31C000809
:10003000AF1C000800000000BB1C0008C71C000823
:10004000B51F0008B51F0008B51F0008B51F000840
:10005000B51F0008B51F0008B51F0008B51F000830
:10006000B51F0008B51F0008B51F0008B51F000820
:10007000B51F0008B51F0008B51F0008B51F000810
:10008000B51F0008B51F0008B51F0008B51F000800
:10009000B51F0008B51F0008B51F0008B51F0008F0
:1000A000B51F0008B51F0008B51F0008B51F0008E0
:1000B000D51C0008B51F000800000000B51F00088F
:1000C000B51F00080000000000000000B51F000878
:1000D00000000000B51F0008B51F00080000000068
:1000E000B51F0008B51F0008B51F0008000000007C
:1000F0000000000000000000000000000000000000
:0C01000000000000000000005FF808F1A3
:10010C0010B5054C237833B9044B13B10448AFF345
:10011C0000800123237010BD8C0000200000000023
:10012C00E435000808B5034B1BB103490348AFF392
:10013C00008008BD0000000090000020E43500089D
:10014C0080B400AF064B1B68012B04D1044B00227A
:10015C001A60012300E000231846BD4680BC70479E
:10016C00A800002080B400AF064B1B68012B04D103
:10017C00044B00221A60012300E000231846BD4600
:10018C0080BC7047AC00002080B400AF064B1B68ED
:10019C00012B04D1044B00221A60012300E0002340
:1001AC001846BD4680BC7047B000002080B582B0B8
:1001BC0000AF00237B601AE1914A7B6852F8232040
:1001CC0090497B6841F823208F4A7B6852F82320A2
:1001DC008B497B6841F823207B68002B54D14FF46A
:1001EC0080718A4802F0CCF903461946864A7B682E
:1001FC0042F82310834A7B6852F8232080497B689D
:10020C0051F823309A423FD17D4A7B6852F8232023
:10021C007D497B6851F823309A4235D17C4A7B6802
:10022C0052F8232078497B6851F823309A4215D034
:10023C00754A7B6852F8232075497B6841F8232066
:10024C00714A7B6852F82330002B1DD1714B01226F
:10025C001A60714B4FF496721A6015E06A4A7B680B
:10026C0052F82330002B0FD16B4B1B68013B6A4AB1
:10027C001360694B1B68002B06D1684B01221A6076
:10028C00654B4FF496721A607B68012B54D14FF476
:10029C0000715E4802F074F9034619465A4A7B68AD
:1002AC0042F82310574A7B6852F8232054497B6844
:1002BC0051F823309A423FD1514A7B6852F823209F
:1002CC0051497B6851F823309A4235D1504A7B68AA
:1002DC0052F823204C497B6851F823309A4215D0B0
:1002EC00494A7B6852F8232049497B6841F823200E
:1002FC00454A7B6852F82330002B1DD1484B012214
:10030C001A60454B4FF496721A6015E03E4A7B68B2
:10031C0052F82330002B0FD13F4B1B68013B3E4A58
:10032C0013603D4B1B68002B06D13E4B01221A601B
:10033C00394B4FF496721A607B68022B54D14FF4F0
:10034C008061324802F01CF9034619462E4A7B683C
:10035C0042F823102B4A7B6852F8232028497B68EB
:10036C0051F823309A423FD1254A7B6852F823201A
:10037C0025497B6851F823309A4235D1244A7B6851
:10038C0052F8232020497B6851F823309A4215D02B
:10039C001D4A7B6852F823201D497B6841F82320B5
:1003AC00194A7B6852F82330002B1DD11E4B0122B9
:1003BC001A60194B4FF496721A6015E0124A7B685A
:1003CC0052F82330002B0FD1134B1B68013B124A00
:1003DC001360114B1B68002B06D1144B01221A60C1
:1003EC000D4B4FF496721A607B6801337B607B680F
:1003FC00022B7FF7E1AE00BF00BF0837BD4680BDC2
:10040C000C0000200000002018000020000C01400F
:10041C0024000020A800002030000020B4000020A0
:10042C00AC000020B8000020B0000020BC00002070
:10043C0080B582B000AF78607B68002B22D100229F
:10044C000121BD4802F0B3F800220221BA4802F0A3
:10045C00AEF800220421B84802F0A9F800220821C5
:10046C00B54802F0A4F800221021B34802F09FF81E
:10047C0000222021B04802F09AF801224021AE4817
:10048C0002F095F87B68012B22D101220121AA48A8
:10049C0002F08DF800220221A74802F088F8002211
:1004AC000421A54802F083F801220821A24802F099
:1004BC007EF801221021A04802F079F801222021B7
:1004CC009D4802F074F8012240219B4802F06FF81D
:1004DC007B68022B22D100220121974802F067F899
:1004EC0000220221944802F062F801220421924871
:1004FC0002F05DF8002208218F4802F058F8002223
:10050C0010218D4802F053F8012220218A4802F074
:10051C004EF800224021884802F049F87B68032BF2
:10052C0022D100220121844802F041F8002202214C
:10053C00814802F03CF8002204217F4802F037F891
:10054C00002208217C4802F032F8012210217A485E
:10055C0002F02DF801222021774802F028F8002221
:10056C004021754802F023F87B68042B22D101222C
:10057C000121714802F01BF8002202216E4802F0A2
:10058C0016F8002204216C4802F011F8012208210F
:10059C00694802F00CF801221021674802F007F8B4
:1005AC0000222021644802F002F800224021624817
:1005BC0001F0FDFF7B68052B22D1002201215E4852
:1005CC0001F0F5FF012202215B4801F0F0FF00224F
:1005DC000421594801F0EBFF00220821564801F094
:1005EC00E6FF01221021544801F0E1FF00222021F6
:1005FC00514801F0DCFF002240214F4801F0D7FFA9
:10060C007B68062B22D1002201214B4801F0CFFF41
:10061C0001220221484801F0CAFF00220421464869
:10062C0001F0C5FF00220821434801F0C0FF002261
:10063C001021414801F0BBFF002220213E4801F06F
:10064C00B6FF002240213C4801F0B1FF7B68072B2C
:10065C0022D100220121384801F0A9FF00220221F9
:10066C00354801F0A4FF00220421334801F09FFF1C
:10067C0001220821304801F09AFF012210212E4856
:10068C0001F095FF012220212B4801F090FF01225F
:10069C004021294801F08BFF7B68082B22D10022D6
:1006AC000121254801F083FF00220221224801F09C
:1006BC007EFF00220421204801F079FF002208214E
:1006CC001D4801F074FF002210211B4801F06FFF40
:1006DC0000222021184801F06AFF00224021164810
:1006EC0001F065FF7B68092B22D100220121124801
:1006FC0001F05DFF002202210F4801F058FF00229B
:10070C0004210D4801F053FF002208210A4801F092
:10071C004EFF01221021084801F049FF0022202140
:10072C00054801F044FF00224021034801F03FFF3F
:10073C0000BF0837BD4680BD000C014080B582B0BB
:10074C0000AF78607B68002B27D100221021D348A2
:10075C0001F02DFF00224FF40061D04801F027FF7B
:10076C0000224FF48051CD4801F021FF00224FF4BC
:10077C000051CA4801F01BFF00224FF48041C748CA
:10078C0001F015FF00224FF40041C44801F00FFFA7
:10079C0001228021C24801F00AFF7B68012B27D17E
:1007AC0001221021BD4801F002FF00224FF400612C
:1007BC00BA4801F0FCFE00224FF48051B74801F01A
:1007CC00F6FE01224FF40051B44801F0F0FE012274
:1007DC004FF48041B14801F0EAFE01224FF4004190
:1007EC00AE4801F0E4FE01228021AD4801F0DFFEAD
:1007FC007B68022B27D100221021A84801F0D7FEDC
:10080C0000224FF40061A54801F0D1FE01224FF403
:10081C008051A24801F0CBFE00224FF400519F48BA
:10082C0001F0C5FE00224FF480419C4801F0BFFE50
:10083C0001224FF40041994801F0B9FE00228021B9
:10084C00974801F0B4FE7B68032B27D100221021BE
:10085C00924801F0ACFE00224FF400618F4801F089
:10086C00A6FE00224FF480518C4801F0A0FE00221D
:10087C004FF40051894801F09AFE01224FF4804157
:10088C00864801F094FE01224FF40041834801F0A8
:10089C008EFE00228021824801F089FE7B68042BA9
:1008AC0027D1012210217D4801F081FE00224FF456
:1008BC0000617A4801F07BFE00224FF480517748AA
:1008CC0001F075FE01224FF40051744801F06FFEE7
:1008DC0001224FF48041714801F069FE00224FF46F
:1008EC0000416E4801F063FE002280216C4801F04B
:1008FC005EFE7B68052B27D100221021674801F092
:10090C0056FE01224FF40061644801F050FE0022B3
:10091C004FF48051614801F04AFE00224FF400511F
:10092C005E4801F044FE01224FF480415B4801F027
:10093C003EFE00224FF40041584801F038FE0022E0
:10094C008021574801F033FE7B68062B27D100220B
:10095C001021524801F02BFE01224FF400614F4848
:10096C0001F025FE00224FF480514C4801F01FFE8F
:10097C0000224FF40051494801F019FE00224FF4B7
:10098C008041464801F013FE00224FF400414348D9
:10099C0001F00DFE00228021414801F008FE7B6829
:1009AC00072B27D1002210213C4801F000FE002229
:1009BC004FF40061394801F0FAFD00224FF48051E8
:1009CC00364801F0F4FD01224FF40051334801F098
:1009DC00EEFD01224FF48041304801F0E8FD012288
:1009EC004FF400412D4801F0E2FD012280212C48FA
:1009FC0001F0DDFD7B68082B27D100221021274850
:100A0C0001F0D5FD00224FF40061244801F0CFFD28
:100A1C0000224FF48051214801F0C9FD00224FF40F
:100A2C0000511E4801F0C3FD00224FF480411B48C9
:100A3C0001F0BDFD00224FF40041184801F0B7FD54
:100A4C0000228021164801F0B2FD7B68092B2DD1C4
:100A5C0000221021114801F0AAFD00224FF4006180
:100A6C000E4801F0A4FD00224FF480510B4801F018
:100A7C009EFD00224FF40051084801F098FD012220
:100A8C004FF48041054801F092FD00224FF40041E3
:100A9C00024801F08CFD002204E000BF0008014078
:100AAC00000C01408021034801F081FD00BF083794
:100ABC00BD4680BD000C014080B582B000AF7860AF
:100ACC007B68002B03D07B68012B12D023E0144BE6
:100ADC001B681846FFF7ACFC00224FF4004111488C
:100AEC0001F065FD01224FF480510E4801F05FFDCD
:100AFC0011E00B4B5B681846FFF79AFC01224FF490
:100B0C000041084801F053FD00224FF48051054884
:100B1C0001F04DFD00BF00BF0837BD4680BD00BFD2
:100B2C0034010020000C014080B582B000AF786029
:100B3C007B68002B03D07B68012B12D023E0144B75
:100B4C001B681846FFF7FAFD00224FF400511148BC
:100B5C0001F02DFD01224FF480410E4801F027FDDC
:100B6C0011E00B4B5B681846FFF7E8FD01224FF4D0
:100B7C000051084801F01BFD00224FF4804105484C
:100B8C0001F015FD00BF00BF0837BD4680BD00BF9A
:100B9C003C010020000C014080B500AF444B1B68A9
:100BAC000B3B032B78D801A252F823F0C90B000899
:100BBC00F70B0008310C00086B0C00083D4B1B6850
:100BCC00012B6BD13C4B1B685A1C3B490A601846E5
:100BDC00FFF772FF384B1B68022B02D1364B0022F9
:100BEC001A60C82000F088FE58E0344B00221A60CE
:100BFC00324B02225A602F4B1B68012B50D12E4BCB
:100C0C001B685A1C2C490A601846FFF755FF2A4BE3
:100C1C001B68022B02D1284B00221A60C82000F05E
:100C2C006BFE3DE0254B00221A60244B03225A60D8
:100C3C00204B1B68012B35D11F4B1B685A1C1E49BE
:100C4C000A601846FFF738FF1B4B1B68022B02D1BA
:100C5C00194B00221A60C82000F04EFE22E0174B00
:100C6C0000221A60154B04225A60124B1B68012B90
:100C7C001AD1114B1B685A1C0F490A601846FFF712
:100C8C001BFF0D4B1B68022B02D10B4B00221A6071
:100C9C00C82000F031FE07E000BF06E000BF04E012
:100CAC0000BF02E000BF00E000BF00BF80BD00BF7E
:100CBC0034000020E4000020C40000203401002097
:100CCC0080B500AF1C4B1B680F2B02D0102B17D01C
:100CDC0030E01A4B1B68012B29D1194B1B685A1C8D
:100CEC0017490A601846FFF71FFF154B1B68022BAC
:100CFC0002D1134B00221A60C82000F031FE16E01E
:100D0C000E4B1B68012B14D10D4B1B685A1C0C4944
:100D1C000A601846FFF708FF094B1B68022B02D12B
:100D2C00074B00221A60C82000F01AFE01E000BF39
:100D3C0000E000BF00BF80BD38000020F4000020A0
:100D4C00C800002080B500AF8C4B1B68042B00F250
:100D5C00138101A252F823F0790D0008810D0008CF
:100D6C00AD0D0008430E0008D70E0008834B01227E
:100D7C001A6001E1824B05221A60824B09221A602B
:100D8C00814B0B221A60814B0F221A60FFF7D8F9A6
:100D9C000346012B40F0E980784B02221A60E4E014
:100DAC00774B06221A60774B1E221A60764B0C2268
:100DBC001A60764B10221A60FFF7D4F90346012B08
:100DCC0009D1734B1B680133714A1360714B1B685B
:100DDC000133704A13606F4B1B686F4A82FB03121E
:100DEC009210DB17D31A6D4A13606A4B19686A4B61
:100DFC0083FB01239A10CB17D21A13469B00134482
:100E0C005B00CA1A654B5A60FFF7BEF90346012B0B
:100E1C0007D15F4B1B68624A13605E4B1B68614ACB
:100E2C001360FFF78DF90346012B40F0A080534B64
:100E3C0003221A609BE0524B08221A60514B20226D
:100E4C001A60514B0D221A60504B10221A60FFF79A
:100E5C0089F90346012B09D1534B1B680133524AC4
:100E6C001360524B1B680133504A13604F4B1B6885
:100E7C00494A82FB03129210DB17D31A474A1360BC
:100E8C004A4B1968444B83FB01239A10CB17D21A97
:100E9C0013469B0013445B00CA1A404B5A60FFF781
:100EAC0073F90346012B07D13F4B1B68404A136073
:100EBC003E4B1B683F4A1360FFF742F90346012B78
:100ECC0057D12E4B04221A6053E02D4B07221A6087
:100EDC002C4B1F221A602C4B0E221A602B4B10220B
:100EEC001A60FFF73FF90346012B09D1324B1B68FF
:100EFC000133314A1360314B1B6801332F4A1360A5
:100F0C002E4B1B68244A82FB03129210DB17D31A58
:100F1C00224A1360294B19681F4B83FB01239A103B
:100F2C00CB17D21A13469B0013445B00CA1A1B4BF7
:100F3C005A60FFF729F90346012B07D11E4B1B689A
:100F4C001F4A13601D4B1B681E4A1360FFF7F8F80D
:100F5C000346012B0FD11C4B13221A601B4B17227B
:100F6C001A60064B00221A6005E000BF04E000BFC7
:100F7C0002E000BF00E000BF00BF80BDC000002049
:100F8C0044000020480000203400002038000020DD
:100F9C004C0000206C000020676666663C01002057
:100FAC005800002078000020540000206800002029
:100FBC00600000207400002050000020640000201D
:100FCC005C000020700000203C000020400000204D
:100FDC0080B500AF854B1B68133B032B00F2FD80E3
:100FEC0001A252F823F000BF051000082F100008D2
:100FFC00C3100008551100087C4B14221A607C4B5E
:10100C001B684FF47A7202FB03F37A4A1360794B34
:10101C001B68184600F022FC4FF47A7000F052FC6A
:10102C00E2E000F061FE744B1B68744A82FB031211
:10103C009210DB17D31A724A13606F4B19686F4BFF
:10104C0083FB01239A10CB17D21A13469B0013442F
:10105C005B00CA1A6A4B5A606A4B1B68012B10D191
:10106C00654B1B68013B644A1360634B1B68002B88
:10107C0003D15F4B1B68604A13604FF47A7000F029
:10108C0021FC614B1B68012B40F0A980574B1522AA
:10109C001A605E4B1B684FF47A7202FB03F3554ADD
:1010AC005360544B5B68184600F0D8FB4FF47A70D1
:1010BC0000F008FC93E000F02DFE554B1B684F4AE6
:1010CC0082FB03129210DB17D31A4D4A1360504B5C
:1010DC0019684A4B83FB01239A10CB17D21A13467B
:1010EC009B0013445B00CA1A454B5A60454B1B6866
:1010FC00012B10D1464B1B68013B454A1360444BF6
:10110C001B68002B03D1414B1B68414A13604FF401
:10111C007A7000F0D7FB3C4B1B68012B61D1334B31
:10112C0016221A603B4B1B684FF47A7202FB03F3D6
:10113C00304A93602F4B9B68184600F08FFB4FF49E
:10114C007A7000F0BFFB4CE000F0FAFD324B1B68EC
:10115C002A4A82FB03129210DB17D31A284A136017
:10116C002D4B1968254B83FB01239A10CB17D21AF0
:10117C0013469B0013445B00CA1A214B5A60214B47
:10118C001B68012B10D1244B1B68013B224A1360B6
:10119C00214B1B68002B03D11E4B1B681E4A13608E
:1011AC004FF47A7000F08EFB174B1B68012B1AD191
:1011BC000E4B14221A600E4B1B684FF47A7202FB12
:1011CC0003F30C4A13600B4B1B68184600F046FBEC
:1011DC004FF47A7000F076FB05E000BF04E000BF2E
:1011EC0002E000BF00E000BF00BF80BD3C0000205B
:1011FC004C0000201C010020580000206766666629
:10120C0034010020DC000020CC0000205000002025
:10121C005C000020540000206000002080B500AF6E
:10122C00894B1B68173B032B00F2058101A252F876
:10123C0023F000BF51120008B11300087B12000804
:10124C001F130008804B19221A60804B1B684FF447
:10125C007A7202FB03F37E4A13607D4B1B681846BF
:10126C0000F016FB4FF47A7000F060FBEAE000F03F
:10127C0095FD784B1B68784A82FB03129210DB17A2
:10128C00D31A764A1360734B1968734B83FB012393
:10129C009A10CB17D21A13469B0013445B00CA1A40
:1012AC006E4B5A606E4B1B68012B18D1694B1B6837
:1012BC00013B684A1360674B1B68002B03D04FF44B
:1012CC007A7000F033FB634B1B68002B03D15F4B30
:1012DC001B68604A13604FF47A7000F027FB614B77
:1012EC001B68012B40F0A980574B1A221A605E4BE9
:1012FC001B684FF47A7202FB03F3554A5360544B4C
:10130C005B68184600F0C4FA4FF47A7000F00EFBDC
:10131C0093E000F05BFD554B1B684F4A82FB0312B8
:10132C009210DB17D31A4D4A1360504B19684A4B75
:10133C0083FB01239A10CB17D21A13469B0013443C
:10134C005B00CA1A454B5A60454B1B68012B10D1E8
:10135C00464B1B68013B454A1360444B1B68002BF2
:10136C0003D1414B1B68414A13604FF47A7000F073
:10137C00DDFA3C4B1B68012B61D1334B18221A60F0
:10138C003B4B1B684FF47A7202FB03F3304A9360B9
:10139C002F4B9B68184600F07BFA4FF47A7000F0E4
:1013AC00C5FA4CE000F0E2FC324B1B682A4A82FB87
:1013BC0003129210DB17D31A284A13602D4B1968AD
:1013CC00254B83FB01239A10CB17D21A13469B0093
:1013DC0013445B00CA1A214B5A60214B1B68012B2A
:1013EC0010D1244B1B68013B224A1360214B1B6814
:1013FC00002B03D11E4B1B681E4A13604FF47A70EE
:10140C0000F094FA174B1B68012B1AD10E4B1922C2
:10141C001A600E4B1B684FF47A7202FB03F30C4AF2
:10142C0013600B4B1B68184600F032FA4FF47A70BD
:10143C0000F07CFA05E000BF04E000BF02E000BF52
:10144C0000E000BF00BF80BD400000206400002011
:10145C002801002070000020676666663C010020B1
:10146C00EC000020D4000020680000207400002054
:10147C006C0000207800002080B500AF214B1B6869
:10148C00053B032B34D801A252F823F0A914000811
:10149C00AF140008E3140008C9140008FFF798FD06
:1014AC002DE000F0F7FC184B1B68012B22D100F04B
:1014BC00AFFC4FF4FA7000F087FA1BE000F0FAFC76
:1014CC00114B1B68012B17D100F0B6FC4FF4FA70CE
:1014DC0000F07AFA10E000F0FDFC0B4B1B68012BBE
:1014EC000CD100F09FFC4FF4FA7000F06DFA05E09F
:1014FC0000BF04E000BF02E000BF00E000BF00BF7F
:10150C0080BD00BF440000200401002080B500AF66
:10151C00354B1B68093B172B5CD801A252F823F002
:10152C008D150008E1150008E1150008E11500080B
:10153C00E1150008E1150008E1150008E1150008A7
:10154C00E1150008E1150008E1150008E115000897
:10155C00E1150008E1150008E1150008E115000887
:10156C00E1150008E1150008E1150008E115000877
:10157C00E115000893150008C7150008AD15000803
:10158C00FFF74CFE2DE000F0B5FC184B1B68012B4F
:10159C0022D100F05BFC4FF4FA7000F0FBF91BE079
:1015AC0000F0BAFC114B1B68012B17D100F066FC44
:1015BC004FF4FA7000F0EEF910E000F0BFFC0B4BAA
:1015CC001B68012B0CD100F04DFC4FF4FA7000F0AD
:1015DC00E1F905E000BF04E000BF02E000BF00E05D
:1015EC0000BF00BF80BD00BF48000020FC000020F1
:1015FC0080B500AF00F0DAFC00F032F800F0B8F87B
:10160C0000F06AF8144801F02FFC0A2000F074F97D
:10161C000A2000F0A5F94FF4FA7000F0BBF94FF472
:10162C00FA7000F0D1F94FF4FA7000F0E7F90B4BB7
:10163C001B68012B05D100F0E1FB4FF4FA7000F0B0
:10164C00DDF9FFF77FFBFFF7A7FAFFF739FBFFF791
:10165C005DFFFFF711FFEAE74401002014010020B1
:10166C0080B590B000AF07F118032822002118466E
:10167C0001F0AAFF3B1D00221A605A609A60DA60E2
:10168C001A610223BB610123BB621023FB6200239E
:10169C007B6307F11803184600F0BAFF0346002BD2
:1016AC0001D000F0D5F80F237B600023BB60002332
:1016BC00FB6000233B6100237B613B1D002118462E
:1016CC0001F026FA0346002B01D000F0C1F800BF50
:1016DC004037BD4680BD000080B586B000AF07F135
:1016EC00080300221A605A609A60DA603B460022B6
:1016FC001A605A601D4B4FF080421A601B4B41F62A
:10170C003F725A60194B00229A60184B0922DA601A
:10171C00164B00221A61154B00229A61134801F0F6
:10172C0053FB0346002B01D000F092F84FF480538A
:10173C00BB6007F1080319460C4801F0D1FC0346C5
:10174C00002B01D000F084F800233B6000237B6069
:10175C003B461946054801F0A9FE0346002B01D073
:10176C0000F076F800BF1837BD4680BD440100205C
:10177C0080B586B000AF07F1080300221A605A60EA
:10178C009A60DA60294B9B69284A43F00403936101
:10179C00264B9B6903F004037B607B68234B9B699E
:1017AC00224A43F008039361204B9B6903F0080322
:1017BC003B603B6800224FF6F8711D4800F0F7FEC5
:1017CC0000224FF2FF011B4800F0F1FE4FF6F873B8
:1017DC00BB600123FB6000233B6102237B6107F1AB
:1017EC0008031946124800F051FD4FF2FF03BB608D
:1017FC000123FB6000233B6102237B6107F108039B
:10180C0019460C4800F042FD4FF4E063BB60002326
:10181C00FB6001233B6107F108031946054800F002
:10182C0035FD00BF1837BD4680BD00BF001002401B
:10183C0000080140000C014080B582B000AF786018
:10184C0000F0F6F8FEF7B2FC00BF0837BD4680BDCD
:10185C0080B400AF72B600BFFEE7000080B483B066
:10186C0000AF7860074B1B687A6892FBF3F3064A6B
:10187C001360064B00221A6000BF0C37BD4680BCBB
:10188C00704700BF7C000020D0000020CC0000205E
:10189C0080B483B000AF7860074B1B687A6892FB0A
:1018AC00F3F3064A1360064B00221A6000BF0C3794
:1018BC00BD4680BC704700BF7C000020D8000020D3
:1018CC00D400002080B483B000AF7860074B1B6855
:1018DC007A6892FBF3F3064A1360064B00221A60F7
:1018EC0000BF0C37BD4680BC704700BF7C00002099
:1018FC00E0000020DC00002080B483B000AF7860F2
:10190C00074B1B687A6892FBF3F3064A1360064B8D
:10191C0000221A6000BF0C37BD4680BC704700BF68
:10192C007C000020E8000020E400002080B483B09C
:10193C0000AF7860074B1B687A6892FBF3F3064A9A
:10194C001360064B00221A6000BF0C37BD4680BCEA
:10195C00704700BF7C000020F0000020EC0000204D
:10196C0080B483B000AF7860074B1B687A6892FB39
:10197C00F3F3064A1360064B00221A6000BF0C37C3
:10198C00BD4680BC704700BF7C000020F8000020E2
:10199C00F400002080B483B000AF7860074B1B6864
:1019AC007A6892FBF3F3064A1360064B00221A6026
:1019BC0000BF0C37BD4680BC704700BF7C000020C8
:1019CC0000010020FC00002080B483B000AF7860E0
:1019DC00074B1B687A6892FBF3F3064A1360064BBD
:1019EC0000221A6000BF0C37BD4680BC704700BF98
:1019FC007C000020080100200401002080B483B08A
:101A0C0000AF7860074B1B687A6892FBF3F3064AC9
:101A1C001360064B00221A6000BF0C37BD4680BC19
:101A2C00704700BF7C00002018010020140100202A
:101A3C0080B400AF514B1B68002B04DD4F4B1B686F
:101A4C00013B4E4A13604D4B1B68002B02D14C4B93
:101A5C0001221A604B4B1B68002B04DD494B1B68A1
:101A6C00013B484A1360474B1B68002B02D1464B85
:101A7C0001221A60454B1B68002B04DD434B1B688D
:101A8C00013B424A1360414B1B68002B02D1404B77
:101A9C0001221A603F4B1B68002B04DD3D4B1B6879
:101AAC00013B3C4A13603B4B1B68002B02D13A4B69
:101ABC0001221A60394B1B68002B04DD374B1B6865
:101ACC00013B364A1360354B1B68002B02D1344B5B
:101ADC0001221A60334B1B68002B04DD314B1B6851
:101AEC00013B304A13602F4B1B68002B02D12E4B4D
:101AFC0001221A602D4B1B68002B04DD2B4B1B683D
:101B0C00013B2A4A1360294B1B68002B02D1284B3E
:101B1C0001221A60274B1B68002B04DD254B1B6828
:101B2C00013B244A1360234B1B68002B02D1224B30
:101B3C0001221A60214B1B68002B04DD1F4B1B6814
:101B4C00013B1E4A13601D4B1B68002B02D11C4B22
:101B5C0001221A601B4B1B68002B04DD194B1B6800
:101B6C00013B184A1360174B1B68002B02D1164B14
:101B7C0001221A6000BFBD4680BC7047D000002017
:101B8C00CC000020D8000020D4000020E000002071
:101B9C00DC000020E8000020E4000020F000002021
:101BAC00EC000020F8000020F400002000010020D0
:101BBC00FC0000200801002004010020100100207E
:101BCC000C010020180100201401002080B485B005
:101BDC0000AF154B9B69144A43F001039361124B00
:101BEC009B6903F00103BB60BB680F4BDB690E4ABA
:101BFC0043F08053D3610C4BDB6903F080537B6063
:101C0C007B680A4B5B68FB60FB6823F0E063FB605E
:101C1C00FB6843F08063FB60044AFB68536000BFC1
:101C2C001437BD4680BC70470010024000000140D4
:101C3C0080B584B000AF78607B681B68B3F1804FCF
:101C4C0013D10C4BDB690B4A43F00103D361094BF5
:101C5C00DB6903F00103FB60FB68002200211C2000
:101C6C0000F0DDFA1C2000F0F6FA00BF1037BD467C
:101C7C0080BD00BF0010024080B400AFFEE780B40E
:101C8C0000AFFEE780B400AFFEE780B400AFFEE724
:101C9C0080B400AFFEE780B400AF00BFBD4680BC8F
:101CAC00704780B400AF00BFBD4680BC704780B4A5
:101CBC0000AF00BFBD4680BC704780B500AF00F0E0
:101CCC00BBF900BF80BD000080B500AF024801F039
:101CDC0017F900BF80BD00BF4401002080B400AFE5
:101CEC0000BFBD4680BC704780B500AF01222021EB
:101CFC00074800F05CFC00228021054800F057FCEE
:101D0C0000224021024800F052FC00BF80BD00BF01
:101D1C000008014080B500AF00222021074800F0E8
:101D2C0046FC00228021054800F041FC01224021A4
:101D3C00024800F03CFC00BF80BD00BF0008014021
:101D4C0080B500AF00222021074800F030FC0122B2
:101D5C008021054800F02BFC00224021024800F0B5
:101D6C0026FC00BF80BD00BF0008014080B500AF5D
:101D7C0001224FF48071084800F019FC00224FF446
:101D8C008061054800F013FC00224FF400710248FA
:101D9C0000F00DFC00BF80BD0008014080B500AF15
:101DAC0000224FF48071084800F001FC00224FF42F
:101DBC008061054800F0FBFB01224FF400710248E2
:101DCC0000F0F5FB00BF80BD0008014080B500AFFE
:101DDC0000224FF48071084800F0E9FB01224FF417
:101DEC008061054800F0E3FB00224FF400710248CB
:101DFC0000F0DDFB00BF80BD0008014080B500AFE6
:101E0C000821024800F0EBFB00BF80BD0008014038
:101E1C0080B500AF2021024800F0E1FB00BF80BD7F
:101E2C000008014080B500AF4021024800F0D7FB0C
:101E3C0000BF80BD0008014080B500AF8021024882
:101E4C0000F0CDFB00BF80BD0008014080B500AFA5
:101E5C004FF48071024800F0C2FB00BF80BD00BF90
:101E6C000008014080B500AF4FF40071024800F04B
:101E7C00B6FB00BF80BD00BF0008014080B500AFBD
:101E8C004FF48061024800F0AAFB00BF80BD00BF88
:101E9C000008014080B500AF00228021044800F00A
:101EAC0086FB00224021024800F081FB00BF80BD70
:101EBC000008014080B500AF00222021044800F04A
:101ECC0076FB00224021024800F071FB00BF80BD70
:101EDC000008014080B500AF00222021044800F02A
:101EEC0066FB00228021024800F061FB00BF80BD30
:101EFC000008014080B500AF00224FF48061054816
:101F0C0000F055FB00224FF40071024800F04FFB2B
:101F1C0000BF80BD0008014080B500AF00224FF427
:101F2C008071054800F043FB00224FF40071024819
:101F3C0000F03DFB00BF80BD0008014080B500AF44
:101F4C0000224FF48071054800F031FB00224FF461
:101F5C008061024800F02BFB00BF80BD00080140EF
:101F6C00FFF7BCFE0B480C490C4A002302E0D45886
:101F7C00C4500433C4188C42F9D3094A094C0023C9
:101F8C0001E013600432A242FBD301F0F9FAFFF72F
:101F9C002FFB7047000000208C0000202836000822
:101FAC008C00002090010020FEE7000080B500AFFF
:101FBC00084B1B68074A43F010031360032000F022
:101FCC0023F90F2000F008F8FFF700FE0023184655
:101FDC0080BD00BF0020024080B582B000AF7860A9
:101FEC00124B1A68124B1B7819464FF47A73B3FBD9
:101FFC00F1F3B2FBF3F3184600F03BF90346002B68
:10200C0001D001230EE07B680F2B0AD800227968DF
:10201C004FF0FF3000F003F9064A7B681360002391
:10202C0000E0012318460837BD4680BD8000002023
:10203C00880000208400002080B400AF054B1B7882
:10204C001A46054B1B681344034A136000BFBD4678
:10205C0080BC7047880000208C01002080B400AF49
:10206C00024B1B681846BD4680BC70478C01002093
:10207C0080B485B000AF78607B6803F00703FB6029
:10208C000C4BDB68BB60BA684FF6FF031340BB60B8
:10209C00FB681A02BB68134343F0BF6343F400337D
:1020AC00BB60044ABB68D36000BF1437BD4680BC1C
:1020BC00704700BF00ED00E080B400AF044BDB685C
:1020CC001B0A03F007031846BD4680BC704700BFCF
:1020DC0000ED00E080B483B000AF0346FB7197F9CC
:1020EC000730002B0BDBFB7903F01F02064997F935
:1020FC0007305B09012000FA02F241F8232000BFEF
:10210C000C37BD4680BC704700E100E080B483B062
:10211C0000AF03463960FB7197F90730002B0ADBDF
:10212C003B68DAB20C4997F907301201D2B20B4472
:10213C0083F800230AE03B68DAB20849FB7903F024
:10214C000F03043B1201D2B20B441A7600BF0C37BA
:10215C00BD4680BC704700BF00E100E000ED00E030
:10216C0080B489B000AFF860B9607A60FB6803F0A6
:10217C000703FB61FB69C3F10703042B28BF04238E
:10218C00BB61FB690433062B02D9FB69033B00E0FE
:10219C0000237B614FF0FF32BB6902FA03F3DA4391
:1021AC00BB681A407B699A404FF0FF317B6901FA9A
:1021BC0003F3D9437B680B40134318462437BD46C1
:1021CC0080BC704780B582B000AF78607B68013B03
:1021DC00B3F1807F01D301230FE00A4A7B68013BF6
:1021EC0053600F214FF0FF30FFF790FF054B00229B
:1021FC009A60044B07221A60002318460837BD4624
:10220C0080BD00BF10E000E080B582B000AF786008
:10221C007868FFF72DFF00BF0837BD4680BD80B53D
:10222C0086B000AF0346B9607A60FB7300237B6114
:10223C00FFF742FF78617A68B9687869FFF790FF19
:10224C00024697F90F3011461846FFF75FFF00BFA3
:10225C001837BD4680BD80B582B000AF0346FB7118
:10226C0097F907301846FFF735FF00BF0837BD4612
:10227C0080BD80B582B000AF78607868FFF7A2FFB0
:10228C00034618460837BD4680BD000080B48BB0AD
:10229C0000AF7860396000237B6200233B6248E129
:1022AC0001227B6A02FA03F3FB613B681B68FA6943
:1022BC001340BB61BA69FB699A4240F037813B68B5
:1022CC005B68A34A93425ED0A14A934275D8A14A57
:1022DC00934258D09F4A93426FD89F4A934252D010
:1022EC009D4A934269D89D4A93424CD09B4A934253
:1022FC0063D89B4A934246D0994A93425DD8122B9D
:10230C002AD8122B59D801A252F823F09323000893
:10231C006D2300087F230008C1230008C723000891
:10232C00C7230008C7230008C7230008C7230008D9
:10233C00C7230008C7230008C7230008C7230008C9
:10234C00C7230008C7230008C7230008C7230008B9
:10235C007523000889230008824A934213D02CE08D
:10236C003B68DB683B6229E03B68DB6804333B621B
:10237C0024E03B68DB6808333B621FE03B68DB68AA
:10238C000C333B621AE03B689B68002B02D10423A0
:10239C003B6213E03B689B68012B05D108233B6231
:1023AC007B68FA691A6109E008233B627B68FA6969
:1023BC005A6103E000233B6200E000BFBB69FF2BC6
:1023CC0001D87B6801E07B6804337B61BB69FF2B20
:1023DC0002D87B6A9B0002E07B6A083B9B003B6156
:1023EC007B691A680F213B6901FA03F3DB431A403E
:1023FC00396A3B6901FA03F31A437B691A603B683B
:10240C005B6803F08053002B00F09080564B9B6967
:10241C00554A43F001039361534B9B6903F001034D
:10242C00BB60BB68514A7B6A9B08023352F823306D
:10243C00FB607B6A03F003039B000F2202FA03F399
:10244C00DB43FA681340FB607B68494A93420DD02A
:10245C007B68484A934207D07B68474A934201D134
:10246C00022304E0032302E0012300E000237A6A44
:10247C0002F0030292009340FA681343FB603B495D
:10248C007B6A9B080233FA6841F823203B685B683F
:10249C0003F48013002B06D0384B9A683749BB697C
:1024AC0013438B6006E0354B9A68BB69DB433349B9
:1024BC0013408B603B685B6803F40013002B06D061
:1024CC002E4BDA682D49BB691343CB6006E02B4BCE
:1024DC00DA68BB69DB4329491340CB603B685B6816
:1024EC0003F40033002B06D0244B5A682349BB69F4
:1024FC0013434B6006E0214B5A68BB69DB431F4911
:10250C0013404B603B685B6803F48033002B06D0B0
:10251C001A4B1A681949BB6913430B6006E0174B39
:10252C001A68BB69DB43154913400B607B6A0133A6
:10253C007B623B681A687B6A22FA03F3002B7FF4F8
:10254C00AFAE00BF00BF2C37BD4680BC704700BF8C
:10255C000000321000003110000022100000211089
:10256C000000121000001110001002400000014089
:10257C0000080140000C0140001001400004014023
:10258C0080B485B000AF78600B467B807B689A681E
:10259C007B881340002B02D00123FB7301E0002346
:1025AC00FB73FB7B18461437BD4680BC704780B468
:1025BC0083B000AF78600B467B8013467B707B78D2
:1025CC00002B03D07A887B681A6103E07B881A049D
:1025DC007B681A6100BF0C37BD4680BC704780B465
:1025EC0085B000AF78600B467B807B68DB68FB6056
:1025FC007A88FB6813401A04FB68D9437B880B402C
:10260C001A437B681A6100BF1437BD4680BC704703
:10261C0080B586B000AF78607B68002B01D10123B8
:10262C006CE27B681B6803F00103002B00F08780D1
:10263C00924B5B6803F00C03042B0CD08F4B5B6844
:10264C0003F00C03082B12D18C4B5B6803F4803322
:10265C00B3F5803F0BD1894B1B6803F40033002B7F
:10266C006CD07B685B68002B68D1012346E27B68E9
:10267C005B68B3F5803F06D1804B1B687F4A43F4FF
:10268C00803313602EE07B685B68002B0CD17B4B96
:10269C001B687A4A23F480331360784B1B68774AA3
:1026AC0023F4802313601DE07B685B68B3F5A02FD7
:1026BC000CD1724B1B68714A43F4802313606F4B2F
:1026CC001B686E4A43F4803313600BE06B4B1B6842
:1026DC006A4A23F480331360684B1B68674A23F4FF
:1026EC00802313607B685B68002B13D0FFF7B6FC6C
:1026FC00386108E0FFF7B2FC02463B69D31A642B41
:10270C0001D90323FAE15D4B1B6803F40033002B62
:10271C00F0D014E0FFF7A2FC386108E0FFF79EFC54
:10272C0002463B69D31A642B01D90323E6E1534BD0
:10273C001B6803F40033002BF0D100E000BF7B6872
:10274C001B6803F00203002B63D04C4B5B6803F057
:10275C000C03002B0BD0494B5B6803F00C03082BCC
:10276C001CD1464B5B6803F48033002B16D1434BD2
:10277C001B6803F00203002B05D07B681B69012B3F
:10278C0001D00123BAE13D4B1B6823F0F8027B68B2
:10279C005B69DB00394913430B603AE07B681B69CA
:1027AC00002B20D0364B01221A60FFF757FC386102
:1027BC0008E0FFF753FC02463B69D31A022B01D900
:1027CC0003239BE12D4B1B6803F00203002BF0D07D
:1027DC002A4B1B6823F0F8027B685B69DB002749F6
:1027EC0013430B6015E0264B00221A60FFF736FCF2
:1027FC00386108E0FFF732FC02463B69D31A022B22
:10280C0001D903237AE11D4B1B6803F00203002B53
:10281C00F0D17B681B6803F00803002B3AD07B686F
:10282C009B69002B19D0174B01221A60FFF716FC7D
:10283C00386108E0FFF712FC02463B69D31A022B01
:10284C0001D903235AE10D4B5B6A03F00203002B01
:10285C00F0D0012000F09AFA1CE00A4B00221A601A
:10286C00FFF7FCFB38610FE0FFF7F8FB02463B6912
:10287C00D31A022B08D9032340E100BF00100240F9
:10288C0000004242800442429E4B5B6A03F002030A
:10289C00002BE9D17B681B6803F00403002B00F0CC
:1028AC00A6800023FB75974BDB6903F08053002B4C
:1028BC000DD1944BDB69934A43F08053D361914B18
:1028CC00DB6903F08053BB60BB680123FB758E4B47
:1028DC001B6803F48073002B18D18B4B1B688A4A3E
:1028EC0043F480731360FFF7B9FB386108E0FFF71E
:1028FC00B5FB02463B69D31A642B01D90323FDE0D7
:10290C00814B1B6803F48073002BF0D07B68DB6871
:10291C00012B06D17B4B1B6A7A4A43F001031362ED
:10292C002DE07B68DB68002B0CD1764B1B6A754A5B
:10293C0023F001031362734B1B6A724A23F00403E6
:10294C0013621CE07B68DB68052B0CD16D4B1B6A9A
:10295C006C4A43F0040313626A4B1B6A694A43F0E6
:10296C00010313620BE0674B1B6A664A23F00103F9
:10297C001362644B1B6A634A23F0040313627B6883
:10298C00DB68002B15D0FFF769FB38610AE0FFF715
:10299C0065FB02463B69D31A41F28832934201D956
:1029AC000323ABE0574B1B6A03F00203002BEED062
:1029BC0014E0FFF753FB38610AE0FFF74FFB0246C8
:1029CC003B69D31A41F28832934201D9032395E033
:1029DC004C4B1B6A03F00203002BEED1FB7D012B49
:1029EC0005D1484BDB69474A23F08053D3617B68A0
:1029FC00DB69002B00F08180424B5B6803F00C0319
:102A0C00082B61D07B68DB69022B46D13F4B00223F
:102A1C001A60FFF723FB386108E0FFF71FFB024643
:102A2C003B69D31A022B01D9032367E0354B1B6892
:102A3C0003F00073002BF0D17B681B6AB3F5803F69
:102A4C0008D1304B5B6823F400327B689B682D49BE
:102A5C0013434B602B4B5B6823F474127B68196A2D
:102A6C007B685B6A0B43274913434B60274B01225E
:102A7C001A60FFF7F3FA386108E0FFF7EFFA024645
:102A8C003B69D31A022B01D9032337E01D4B1B687A
:102A9C0003F00073002BF0D02FE01C4B00221A60C7
:102AAC00FFF7DCFA386108E0FFF7D8FA02463B6919
:102ABC00D31A022B01D9032320E0124B1B6803F01D
:102ACC000073002BF0D118E07B68DB69012B01D17E
:102ADC00012313E00B4B5B68FB60FB6803F4803253
:102AEC007B681B6A9A4206D1FB6803F470127B6800
:102AFC005B6A9A4201D0012300E000231846183784
:102B0C00BD4680BD00100240007000406000424293
:102B1C0080B584B000AF786039607B68002B01D140
:102B2C000123D0E06A4B1B6803F007033A689A4212
:102B3C0010D9674B1B6823F0070265493B681343A8
:102B4C000B60634B1B6803F007033A689A4201D091
:102B5C000123B8E07B681B6803F00203002B20D034
:102B6C007B681B6803F00403002B05D0594B5B6892
:102B7C00584A43F4E06353607B681B6803F0080316
:102B8C00002B05D0534B5B68524A43F4605353609F
:102B9C00504B5B6823F0F0027B689B684D491343F4
:102BAC004B607B681B6803F00103002B40D07B68F3
:102BBC005B68012B07D1474B1B6803F40033002BD8
:102BCC0015D101237FE07B685B68022B07D1414B59
:102BDC001B6803F00073002B09D1012373E03D4BFC
:102BEC001B6803F00203002B01D101236BE0394B6E
:102BFC005B6823F003027B685B68364913434B60C8
:102C0C00FFF72CFAF8600AE0FFF728FA0246FB6897
:102C1C00D31A41F28832934201D9032353E02D4B4E
:102C2C005B6803F00C027B685B689B009A42EBD1FB
:102C3C00274B1B6803F007033A689A4210D2244BC7
:102C4C001B6823F0070222493B6813430B60204B9F
:102C5C001B6803F007033A689A4201D0012332E063
:102C6C007B681B6803F00403002B08D0194B5B68CE
:102C7C0023F4E0627B68DB68164913434B607B6886
:102C8C001B6803F00803002B09D0124B5B6823F47C
:102C9C0060527B681B69DB000E4913434B6000F0EC
:102CAC0021F802460B4B5B681B0903F00F030A4922
:102CBC00CB5C22FA03F3094A1360094B1B681846D4
:102CCC00FFF78AF9002318461037BD4680BD00BFB8
:102CDC000020024000100240FC350008800000205B
:102CEC008400002080B487B000AF0023FB60002379
:102CFC00BB6000237B6100237B6000233B611E4B88
:102D0C005B68FB60FB6803F00C03042B02D0082B00
:102D1C0003D027E0194B3B6127E0FB689B0C03F0C9
:102D2C000F03174AD35C7B60FB6803F48033002BE2
:102D3C0010D0114B5B685B0C03F00103114AD35CA0
:102D4C00BB607B680D4A02FB03F2BB68B2FBF3F37A
:102D5C007B6104E07B680C4A02FB03F37B617B69BB
:102D6C003B6102E0054B3B6100BF3B6918461C37D9
:102D7C00BD4680BC704700BF0010024000127A00B4
:102D8C000C3600081C36000800093D0080B485B0E4
:102D9C0000AF78600A4B1B680A4AA2FB03235B0A4C
:102DAC007A6802FB03F3FB6000BFFB685A1EFA60F3
:102DBC00002BF9D100BF00BF1437BD4680BC704753
:102DCC0080000020D34D621080B582B000AF7860D7
:102DDC007B68002B01D1012341E07B6893F83D30E7
:102DEC00DBB2002B06D17B68002283F83C2078688C
:102DFC00FEF71EFF7B68022283F83D207B681A6871
:102E0C007B6804331946104600F056FA7B680122A1
:102E1C0083F846207B68012283F83E207B680122E0
:102E2C0083F83F207B68012283F840207B680122D5
:102E3C0083F841207B68012283F842207B680122C1
:102E4C0083F843207B68012283F844207B680122AD
:102E5C0083F845207B68012283F83D200023184627
:102E6C000837BD4680BD000080B485B000AF7860E7
:102E7C007B6893F83D30DBB2012B01D0012335E0A8
:102E8C007B68022283F83D207B681B68DA687B68CC
:102E9C001B6842F00102DA607B681B68164A934299
:102EAC0009D07B681B68B3F1804F04D07B681B682A
:102EBC00124A934211D17B681B689B6803F007038D
:102ECC00FB60FB68062B10D07B681B681A687B685C
:102EDC001B6842F001021A6007E07B681B681A68E5
:102EEC007B681B6842F001021A60002318461437F5
:102EFC00BD4680BC704700BF002C01400004004060
:102F0C0080B584B000AF78607B681B68DB68FB60C1
:102F1C007B681B681B69BB60BB6803F00203002B5A
:102F2C0020D0FB6803F00203002B1BD07B681B68CE
:102F3C006FF002021A617B6801221A777B681B68AA
:102F4C009B6903F00303002B03D0786800F098F919
:102F5C0005E0786800F08BF9786800F09AF97B68E6
:102F6C0000221A77BB6803F00403002B20D0FB6807
:102F7C0003F00403002B1BD07B681B686FF004026A
:102F8C001A617B6802221A777B681B689B6903F4C1
:102F9C004073002B03D0786800F072F905E0786874
:102FAC0000F065F9786800F074F97B6800221A77F4
:102FBC00BB6803F00803002B20D0FB6803F0080368
:102FCC00002B1BD07B681B686FF008021A617B68B2
:102FDC0004221A777B681B68DB6903F00303002B60
:102FEC0003D0786800F04CF905E0786800F03FF900
:102FFC00786800F04EF97B6800221A77BB6803F002
:10300C001003002B20D0FB6803F01003002B1BD007
:10301C007B681B686FF010021A617B6808221A77B4
:10302C007B681B68DB6903F44073002B03D0786862
:10303C0000F026F905E0786800F019F9786800F0DE
:10304C0028F97B6800221A77BB6803F00103002B78
:10305C000CD0FB6803F00103002B07D07B681B68C6
:10306C006FF001021A617868FEF7E6FBBB6803F0AB
:10307C008003002B0CD0FB6803F08003002B07D0DF
:10308C007B681B686FF080021A61786800F06FFA39
:10309C00BB6803F04003002B0CD0FB6803F040032B
:1030AC00002B07D07B681B686FF040021A617868B0
:1030BC0000F0F8F8BB6803F02003002B0CD0FB6881
:1030CC0003F02003002B07D07B681B686FF02002F5
:1030DC001A61786800F042FA00BF1037BD4680BD17
:1030EC0080B584B000AF786039600023FB737B68D7
:1030FC0093F83C30012B01D10223B4E07B68012210
:10310C0083F83C207B68022283F83D207B681B6897
:10311C009B68BB60BB6823F07703BB60BB6823F480
:10312C007F43BB607B681B68BA689A603B681B680E
:10313C00B3F5005F3ED0B3F5005F00F28780B3F5C6
:10314C00805F00F08680B3F5805F7FD8702B1AD03B
:10315C00702B7BD8602B50D0602B77D8502B3CD069
:10316C00502B73D8402B58D0402B6FD8302B64D0B9
:10317C00302B6BD8202B60D0202B67D8002B5CD049
:10318C00102B5AD062E07B6818683B6899683B68E2
:10319C005A683B68DB6800F06AF97B681B689B68BF
:1031AC00BB60BB6843F07703BB607B681B68BA6885
:1031BC009A604FE07B6818683B6899683B685A686E
:1031CC003B68DB6800F053F97B681B689A687B6886
:1031DC001B6842F480429A603CE07B6818683B684C
:1031EC0059683B68DB681A4600F0CAF87B681B68B4
:1031FC005021184600F021F92CE07B6818683B68D8
:10320C0059683B68DB681A4600F0E8F87B681B6875
:10321C006021184600F011F91CE07B6818683B68C7
:10322C0059683B68DB681A4600F0AAF87B681B6893
:10323C004021184600F001F90CE07B681A683B68E5
:10324C001B681946104600F0F8F803E00123FB73E5
:10325C0000E000BF7B68012283F83D207B680022E0
:10326C0083F83C20FB7B18461037BD4680BD80B4EC
:10327C0083B000AF786000BF0C37BD4680BC704790
:10328C0080B483B000AF786000BF0C37BD4680BC03
:10329C00704780B483B000AF786000BF0C37BD4678
:1032AC0080BC704780B483B000AF786000BF0C372F
:1032BC00BD4680BC7047000080B485B000AF78601C
:1032CC0039607B681B68FB607B682B4A934207D094
:1032DC007B68B3F1804F03D07B68284A934208D1B6
:1032EC00FB6823F07003FB603B685B68FA68134370
:1032FC00FB607B68204A934207D07B68B3F1804F18
:10330C0003D07B681D4A934208D1FB6823F44073B9
:10331C00FB603B68DB68FA681343FB60FB6823F0D7
:10332C0080023B685B691343FB607B68FA681A6038
:10333C003B689A687B68DA623B681A687B689A62B9
:10334C007B680D4A934203D13B681A697B681A6308
:10335C007B6801225A617B681B6903F00103002B17
:10336C0005D07B681B6923F001027B681A6100BFE2
:10337C001437BD4680BC7047002C0140000400404F
:10338C0080B487B000AFF860B9607A60FB681B6AE4
:10339C007B61FB681B6A23F00102FB681A62FB6805
:1033AC009B693B613B6923F0F0033B617B681B012C
:1033BC003A6913433B617B6923F00A037B617A69A9
:1033CC00BB6813437B61FB683A699A61FB687A6955
:1033DC001A6200BF1C37BD4680BC704780B487B0F2
:1033EC0000AFF860B9607A60FB681B6A7B61FB68B0
:1033FC001B6A23F01002FB681A62FB689B693B6135
:10340C003B6923F470433B617B681B033A691343AC
:10341C003B617B6923F0A0037B61BB681B017A696C
:10342C0013437B61FB683A699A61FB687A691A629B
:10343C0000BF1C37BD4680BC704780B485B000AF60
:10344C00786039607B689B68FB60FB6823F07003D5
:10345C00FB603A68FB68134343F00703FB607B682F
:10346C00FA689A6000BF1437BD4680BC704780B4C0
:10347C0087B000AFF860B9607A603B60FB689B680E
:10348C007B617B6923F47F437B613B681A027B6819
:10349C001A43BB6813437A6913437B61FB687A69EF
:1034AC009A6000BF1C37BD4680BC704780B485B0A5
:1034BC0000AF786039607B6893F83C30012B01D108
:1034CC00022341E07B68012283F83C207B680222C6
:1034DC0083F83D207B681B685B68FB607B681B681E
:1034EC009B68BB60FB6823F07003FB603B681B6848
:1034FC00FA681343FB607B681B68FA685A607B6848
:10350C001B68144A934209D07B681B68B3F1804F47
:10351C0004D07B681B68104A93420CD1BB6823F023
:10352C008003BB603B685B68BA681343BB607B6815
:10353C001B68BA689A607B68012283F83D207B681F
:10354C00002283F83C20002318461437BD4680BC6B
:10355C00704700BF002C01400004004080B483B0D1
:10356C0000AF786000BF0C37BD4680BC704780B49C
:10357C0083B000AF786000BF0C37BD4680BC70478D
:10358C0070B500260C4D0D4C641BA410A64209D13D
:10359C0000F022F800260A4D0A4C641BA410A64227
:1035AC0005D170BD55F8043B98470136EEE755F848
:1035BC00043B98470136F2E7203600082036000815
:1035CC00203600082436000803460244934200D1FA
:1035DC00704703F8011BF9E7F8B500BFF8BC08BC4D
:1035EC009E467047F8B500BFF8BC08BC9E467047B5
:1035FC000000000000000000010203040607080997
:10360C0002030405060708090A0B0C0D0E0F101017
:04361C0001020000A7
:04362000310100086C
:043624000D0100088C
:10362800010000000100000001000000010000008E
:10363800010000000100000001000000010000007E
:10364800010000000100000001000000010000006E
:103658002C0100000B0000000F0000001300000008
:103668001700000005000000090000000500000028
:103678000300000002000000050000000300000035
:103688000200000003000000020000000500000026
:103698000300000002000000050000000A0000000E
:0C36A80000127A00100000000100000079
:0400000508001F6D63
:00000001FF
